S00C00004C6162352E73726563D4
S11300000C942E000C9483040C94EF040C945B0564
S11300100C94C7050C9433060C944B000C940A0DF5
S11300200C944B000C94B80C0C949F060C940B0786
S11300300C9477070C94E3070C944F080C94BB08BA
S11300400C9427090C9493090C94FF090C946B0AE3
S11300500C94D70A0C94430B0C94AF0B11241FBEC1
S1130060CFEFD4E0DEBFCDBF11E0A0E0B1E0EAE025
S1130070F1E202C005900D92AC31B107D9F724E04A
S1130080ACE1B1E001C01D92AF36B207E1F70E94C6
S113009067030C9483100C940000CF92DF92EF92CC
S11300A0FF920F931F93CF93DF93EC018B85811104
S11300B016C08C85811129C00E811F81C12CD12CC1
S11300C00F2EF9EBEF2EF3E0FF2EF02D20E030E0C1
S11300D0A90160E070E0CB010E94BF0D77C08C8560
S11300E0811126C00E811F81C12CD12C0F2EF5EB5E
S11300F0EF2EF3E0FF2EF02D20E030E0A90160E0C8
S113010070E0CB010E94BF0D61C00E811F81C12C24
S1130110D12C0F2EF1EBEF2EF3E0FF2EF02D20E08B
S113012030E0A90160E070E0CB010E94BF0D4EC039
S11301308D85882321F10E811F81C12CD12C0F2E96
S1130140F9EBEF2EF3E0FF2EF02D20E030E0A901D3
S113015060E070E0CB010E94BF0D0E811F810F2E65
S1130160F5EBEF2EF3E0FF2EF02D20E030E0A901B7
S11301706AE572E682E090E00E94BF0D23C00E8122
S11301801F81C12CD12C0F2EF9EBEF2EF3E0FF2EA3
S1130190F02D20E030E0A90160E070E0CB010E9486
S11301A0BF0D0E811F810F2EF1EBEF2EF3E0FF2E1A
S11301B0F02D20E030E0A9016AE572E682E090E0EB
S11301C00E94BF0D9D8581E089278D87DF91CF91A6
S11301D01F910F91FF90EF90DF90CF900895CF92F1
S11301E0DF92EF92FF920F931F93CF93DF93EC0173
S11301F0613029F5CA84D12C0C811D810F2EFEE7B4
S1130200EF2EF2E0FF2EF02D20E030E0A90160E0B7
S113021070E0CB010E94BF0DC12CD12C0F2EFFEE3C
S1130220EF2EF0E0FF2EF02D8E0120E030E0A9014A
S11302306AE572E682E090E00E94BF0D14C0CA84B1
S1130240CA94CA86D12C0C811D810F2EFEE7EF2E95
S1130250F2E0FF2EF02D20E030E0A90160E070E034
S1130260CB010E94BF0DDF91CF911F910F91FF90A1
S1130270EF90DF90CF900895CF92DF92EF92FF92AC
S11302800F931F93CF93DF93EC0160FF29C0888500
S11302908F5F888781E08B87C12CD12C0F2EFDE4E2
S11302A0EF2EF0E0FF2EF02D8E0120E030E0A901CA
S11302B060E070E0CB010E94BF0DC884D12C0C819A
S11302C01D810F2EF6E7EF2EF2E0FF2EF02D20E039
S11302D030E0A90160E070E0CB010E94BF0DFDC0D9
S11302E061FF67C08A858F5F8A8788858150888788
S11302F01D86CC24C394D12C0F2EFFEEEF2EF0E0FC
S1130300FF2EF02D8E0120E030E0A90160E070E0C6
S1130310CB010E94BF0D8885811124C01B860E81EC
S11303201F81C12CD12C0F2EF9EBEF2EF3E0FF2E01
S1130330F02D20E030E0A90160E070E0CB010E94E4
S1130340BF0D0F2EFDE4EF2EF0E0FF2EF02D8E01F9
S113035020E030E0A9016AE572E682E090E00E94C4
S1130360BF0D14C08A85853089F4C12CD12C0F2E81
S1130370FDE4EF2EF0E0FF2EF02D8E0120E030E0C2
S1130380A90160E070E0CB010E94BF0DC884D12CAC
S11303900C811D810F2EF6E7EF2EF2E0FF2EF02DDB
S11303A020E030E0A90160E070E0CB010E94BF0DC5
S11303B094C062FF29C089858F5F898781E08C871B
S11303C0C12CD12C0F2EFDE4EF2EF0E0FF2EF02DEA
S11303D08E0120E030E0A90160E070E0CB010E94D2
S11303E0BF0DC984D12C0C811D810F2EF6E8EF2E90
S11303F0F2E0FF2EF02D20E030E0A90160E070E093
S1130400CB010E94BF0D69C063FF67C08A858F5FFF
S11304108A8789858150898781E08D87CC24C3941C
S1130420D12C0F2EFFEEEF2EF0E0FF2EF02D8E01DB
S113043020E030E0A90160E070E0CB010E94BF0D34
S11304408985811124C01C860E811F81C12CD12C69
S11304500F2EF9EBEF2EF3E0FF2EF02D20E030E02D
S1130460A90160E070E0CB010E94BF0D0F2EFDE4F6
S1130470EF2EF0E0FF2EF02D8E0120E030E0A901F8
S11304806AE572E682E090E00E94BF0D14C08A859E
S1130490853089F4C12CD12C0F2EFDE4EF2EF0E031
S11304A0FF2EF02D8E0120E030E0A90160E070E025
S11304B0CB010E94BF0DC984D12C0C811D810F2E4C
S11304C0F6E8EF2EF2E0FF2EF02D20E030E0A90157
S11304D060E070E0CB010E94BF0DDF91CF911F91CE
S11304E00F91FF90EF90DF90CF90089570E080E03F
S11304F090E040E050E00E940B03089570E080E03B
S113050090E042E050E00E940B03089570E080E028
S113051090E044E050E00E940B030895CF92DF92F4
S1130520EF92FF920F931F93C090C600D12CFC0151
S1130530048115810F2EFCE3EF2EF1E0FF2EF02D48
S113054020E030E0A90160E070E0CB010E94BF0D23
S11305501F910F91FF90EF90DF90CF90089580EC62
S11305608CBB8DBB08951092C50083E38093C400B7
S113057088E98093C10086E08093C2000895CF93F8
S1130580DF93CDB7DEB764970FB6F894DEBF0FBE26
S1130590CDBF94E1E8E0F1E0DE01119601900D9207
S11305A09A95E1F76630710568F5E82FF0E0F09769
S11305B0EE0FFF1FEC0FFD1F21813281FB01F5952A
S11305C0E795E451FF4FDB01A170BB2760FF02C038
S11305D06FE001C060EFAF014C5E5F4F822F8F7000
S11305E0329522952F7023273F702327109711F0FF
S11305F08295807F90819623892B808335964E1730
S11306005F0761F764960FB6F894DEBF0FBECDBFE7
S1130610DF91CF9108958F929F92AF92BF92CF9224
S1130620DF92EF92FF92CF93DF934B015C01EA01DB
S113063024E630E040E050E00E9401100F2EFAE082
S1130640CF2ED12CE12CF12CF02DA70196010E9484
S11306500110BE0180E3820F0E94BF022196C501F2
S1130660B401A70196010E940110862FBE01805D8E
S11306700E94BF02DF91CF91FF90EF90DF90CF9067
S1130680BF90AF909F908F90089580EC8093E4008A
S11306908FE08093E70087EB8093E50087E0809309
S11306A0E60040E050E060E070E0CB010E940B0304
S11306B042E050E060E070E0CB010E940B0344E0B4
S11306C050E060E070E0CB010E940B030895CF93EB
S11306D0DF93CDB7DEB76D970FB6F894DEBF0FBECC
S11306E0CDBF0E94AF020E94B3020E9445031A824A
S11306F019821C821B821E821D8218861F82198603
S11307001B861A861D861C86CE0105969F878E87BA
S11307100497998B888B1A8A1B8A1C8A1D8A1E8AC5
S11307201F8A198E188E1B8E1A8E09969D8F8C8F98
S113073048E06EE872E00E960E94CB0F40E050E075
S113074060E070E080E090E00E94E50F80E090E0DF
S11307506D960FB6F894DEBF0FBECDBFDF91CF917B
S1130760089586E08093C600089589E08093C600CA
S113077008958AE08093C6000895CF93DF9300D054
S113078000D0CDB7DEB78FE092E02FEE32E0FC016F
S1130790709791838083409682179307C1F71092D4
S11307A0E0021092DF02EAE4F1E087E691E091834F
S11307B0808384E891E0968F858FA1EAB1E0B3AF9E
S11307C0A2AF1D921C92FA83E983EBE4F3E0FC836D
S11307D0EB8389819A8106960E9442108B819C81C9
S11307E0E981FA81978B868B918F808F8DE59FE0CD
S11307F0948F838F158214827D96FA83E983EB812B
S1130800FC81E05AFF4FFC83EB8389819A818E5BE4
S11308109140F9F6E2EEF1E0118210821582148221
S113082013821282E1E6F0E080E880831082109265
S113083085001092840084E08093810081E080939D
S11308406F000F900F900F900F90DF91CF9108954C
S1130850CF93DF9300D0CDB7DEB79A83898380919D
S113086000019091010106960E944210892B59F4CF
S113087089819A81909301018093000161E070E085
S113088006960E9462100F900F90DF91CF91089509
S11308900F931F93CF93DF93E0912401F0912501EF
S11308A0309761F18091040190910501009731F135
S11308B0C0910201D0910301AA81BB81109779F004
S11308C0468157816085718516960D911D912D91F4
S11308D03C911997401B510B620B730B7AF4FC018A
S11308E0208131813093050120930401D183C08399
S11308F090930301809302010E942804DF91CF9119
S11309001F910F9108951F920F920FB60F92112409
S11309102F933F934F935F936F937F938F939F9303
S1130920AF93BF93EF93FF9320911C0130911D016E
S11309304091840050918500C901032E000CAA0B3C
S1130940BB0BDC019927882760E070E0842B952B92
S1130950A62BB72B80931E0190931F01A093200117
S1130960B0932101B09B1BC040918400509185003D
S1130970C9010196092E000CAA0BBB0BDC019927B7
S1130980882760E070E0842B952BA62BB72B8093EF
S11309901E0190931F01A0932001B0932101E091C7
S11309A0BE01F091BF01309739F060E070E08091B2
S11309B026019091270109950E944804FF91EF9127
S11309C0BF91AF919F918F917F916F915F914F9163
S11309D03F912F910F900FBE0F901F9018951F926B
S11309E00F920FB60F9211242F933F934F935F935F
S11309F06F937F938F939F93AF93BF93EF93FF93E3
S1130A0020911C0130911D0140918400509185007A
S1130A10C901032E000CAA0BBB0BDC019927882704
S1130A2060E070E0842B952BA62BB72B80931E01DE
S1130A3090931F01A0932001B0932101B09B1BC090
S1130A404091840050918500C9010196092E000C43
S1130A50AA0BBB0BDC019927882760E070E0842B8C
S1130A60952BA62BB72B80931E0190931F01A09367
S1130A702001B0932101E091C001F091C1013097B0
S1130A8039F061E070E08091280190912901099585
S1130A900E944804FF91EF91BF91AF919F918F9174
S1130AA07F916F915F914F913F912F910F900FBE66
S1130AB00F901F9018951F920F920FB60F9211244A
S1130AC02F933F934F935F936F937F938F939F9352
S1130AD0AF93BF93EF93FF9320911C0130911D01BD
S1130AE04091840050918500C901032E000CAA0B8B
S1130AF0BB0BDC019927882760E070E0842B952BE1
S1130B00A62BB72B80931E0190931F01A093200165
S1130B10B0932101B09B1BC040918400509185008B
S1130B20C9010196092E000CAA0BBB0BDC01992705
S1130B30882760E070E0842B952BA62BB72B80933D
S1130B401E0190931F01A0932001B0932101E09115
S1130B50C201F091C301309739F062E070E08091F6
S1130B602A0190912B0109950E944804FF91EF916D
S1130B70BF91AF919F918F917F916F915F914F91B1
S1130B803F912F910F900FBE0F901F9018951F92B9
S1130B900F920FB60F9211242F933F934F935F93AD
S1130BA06F937F938F939F93AF93BF93EF93FF9331
S1130BB020911C0130911D014091840050918500C9
S1130BC0C901032E000CAA0BBB0BDC019927882753
S1130BD060E070E0842B952BA62BB72B80931E012D
S1130BE090931F01A0932001B0932101B09B1BC0DF
S1130BF04091840050918500C9010196092E000C92
S1130C00AA0BBB0BDC019927882760E070E0842BDA
S1130C10952BA62BB72B80931E0190931F01A093B5
S1130C202001B0932101E091C401F091C5013097F6
S1130C3039F063E070E080912C0190912D010995C9
S1130C400E944804FF91EF91BF91AF919F918F91C2
S1130C507F916F915F914F913F912F910F900FBEB4
S1130C600F901F9018951F920F920FB60F92112498
S1130C702F933F934F935F936F937F938F939F93A0
S1130C80AF93BF93EF93FF9320911C0130911D010B
S1130C904091840050918500C901032E000CAA0BD9
S1130CA0BB0BDC019927882760E070E0842B952B2F
S1130CB0A62BB72B80931E0190931F01A0932001B4
S1130CC0B0932101B09B1BC04091840050918500DA
S1130CD0C9010196092E000CAA0BBB0BDC01992754
S1130CE0882760E070E0842B952BA62BB72B80938C
S1130CF01E0190931F01A0932001B0932101E09164
S1130D00C601F091C701309739F064E070E080913A
S1130D102E0190912F0109950E944804FF91EF91B3
S1130D20BF91AF919F918F917F916F915F914F91FF
S1130D303F912F910F900FBE0F901F9018951F9207
S1130D400F920FB60F9211242F933F934F935F93FB
S1130D506F937F938F939F93AF93BF93EF93FF937F
S1130D6020911C0130911D01409184005091850017
S1130D70C901032E000CAA0BBB0BDC0199278827A1
S1130D8060E070E0842B952BA62BB72B80931E017B
S1130D9090931F01A0932001B0932101B09B1BC02D
S1130DA04091840050918500C9010196092E000CE0
S1130DB0AA0BBB0BDC019927882760E070E0842B29
S1130DC0952BA62BB72B80931E0190931F01A09304
S1130DD02001B0932101E091C801F091C90130973D
S1130DE039F065E070E0809130019091310109950E
S1130DF00E944804FF91EF91BF91AF919F918F9111
S1130E007F916F915F914F913F912F910F900FBE02
S1130E100F901F9018951F920F920FB60F921124E6
S1130E202F933F934F935F936F937F938F939F93EE
S1130E30AF93BF93EF93FF9320911C0130911D0159
S1130E404091840050918500C901032E000CAA0B27
S1130E50BB0BDC019927882760E070E0842B952B7D
S1130E60A62BB72B80931E0190931F01A093200102
S1130E70B0932101B09B1BC0409184005091850028
S1130E80C9010196092E000CAA0BBB0BDC019927A2
S1130E90882760E070E0842B952BA62BB72B8093DA
S1130EA01E0190931F01A0932001B0932101E091B2
S1130EB0CA01F091CB01309739F066E070E080917F
S1130EC032019091330109950E944804FF91EF91FA
S1130ED0BF91AF919F918F917F916F915F914F914E
S1130EE03F912F910F900FBE0F901F9018951F9256
S1130EF00F920FB60F9211242F933F934F935F934A
S1130F006F937F938F939F93AF93BF93EF93FF93CD
S1130F1020911C0130911D01409184005091850065
S1130F20C901032E000CAA0BBB0BDC0199278827EF
S1130F3060E070E0842B952BA62BB72B80931E01C9
S1130F4090931F01A0932001B0932101B09B1BC07B
S1130F504091840050918500C9010196092E000C2E
S1130F60AA0BBB0BDC019927882760E070E0842B77
S1130F70952BA62BB72B80931E0190931F01A09352
S1130F802001B0932101E091CC01F091CD01309783
S1130F9039F067E070E08091340190913501099552
S1130FA00E944804FF91EF91BF91AF919F918F915F
S1130FB07F916F915F914F913F912F910F900FBE51
S1130FC00F901F9018951F920F920FB60F92112435
S1130FD02F933F934F935F936F937F938F939F933D
S1130FE0AF93BF93EF93FF9320911C0130911D01A8
S1130FF04091840050918500C901032E000CAA0B76
S1131000BB0BDC019927882760E070E0842B952BCB
S1131010A62BB72B80931E0190931F01A093200150
S1131020B0932101B09B1BC0409184005091850076
S1131030C9010196092E000CAA0BBB0BDC019927F0
S1131040882760E070E0842B952BA62BB72B809328
S11310501E0190931F01A0932001B0932101E09100
S1131060CE01F091CF01309739F068E070E08091C3
S113107036019091370109950E944804FF91EF9140
S1131080BF91AF919F918F917F916F915F914F919C
S11310903F912F910F900FBE0F901F9018951F92A4
S11310A00F920FB60F9211242F933F934F935F9398
S11310B06F937F938F939F93AF93BF93EF93FF931C
S11310C020911C0130911D014091840050918500B4
S11310D0C901032E000CAA0BBB0BDC01992788273E
S11310E060E070E0842B952BA62BB72B80931E0118
S11310F090931F01A0932001B0932101B09B1BC0CA
S11311004091840050918500C9010196092E000C7C
S1131110AA0BBB0BDC019927882760E070E0842BC5
S1131120952BA62BB72B80931E0190931F01A093A0
S11311302001B0932101E091D001F091D1013097C9
S113114039F069E070E08091380190913901099596
S11311500E944804FF91EF91BF91AF919F918F91AD
S11311607F916F915F914F913F912F910F900FBE9F
S11311700F901F9018951F920F920FB60F92112483
S11311802F933F934F935F936F937F938F939F938B
S1131190AF93BF93EF93FF9320911C0130911D01F6
S11311A04091840050918500C901032E000CAA0BC4
S11311B0BB0BDC019927882760E070E0842B952B1A
S11311C0A62BB72B80931E0190931F01A09320019F
S11311D0B0932101B09B1BC04091840050918500C5
S11311E0C9010196092E000CAA0BBB0BDC0199273F
S11311F0882760E070E0842B952BA62BB72B809377
S11312001E0190931F01A0932001B0932101E0914E
S1131210D201F091D301309739F06AE070E0809107
S11312203A0190913B0109950E944804FF91EF9186
S1131230BF91AF919F918F917F916F915F914F91EA
S11312403F912F910F900FBE0F901F9018951F92F2
S11312500F920FB60F9211242F933F934F935F93E6
S11312606F937F938F939F93AF93BF93EF93FF936A
S113127020911C0130911D01409184005091850002
S1131280C901032E000CAA0BBB0BDC01992788278C
S113129060E070E0842B952BA62BB72B80931E0166
S11312A090931F01A0932001B0932101B09B1BC018
S11312B04091840050918500C9010196092E000CCB
S11312C0AA0BBB0BDC019927882760E070E0842B14
S11312D0952BA62BB72B80931E0190931F01A093EF
S11312E02001B0932101E091D401F091D501309710
S11312F039F06BE070E080913C0190913D010995DB
S11313000E944804FF91EF91BF91AF919F918F91FB
S11313107F916F915F914F913F912F910F900FBEED
S11313200F901F9018951F920F920FB60F921124D1
S11313302F933F934F935F936F937F938F939F93D9
S1131340AF93BF93EF93FF9320911C0130911D0144
S11313504091840050918500C901032E000CAA0B12
S1131360BB0BDC019927882760E070E0842B952B68
S1131370A62BB72B80931E0190931F01A0932001ED
S1131380B0932101B09B1BC0409184005091850013
S1131390C9010196092E000CAA0BBB0BDC0199278D
S11313A0882760E070E0842B952BA62BB72B8093C5
S11313B01E0190931F01A0932001B0932101E0919D
S11313C0D601F091D701309739F06CE070E080914C
S11313D03E0190913F0109950E944804FF91EF91CD
S11313E0BF91AF919F918F917F916F915F914F9139
S11313F03F912F910F900FBE0F901F9018951F9241
S11314000F920FB60F9211242F933F934F935F9334
S11314106F937F938F939F93AF93BF93EF93FF93B8
S113142020911C0130911D01409184005091850050
S1131430C901032E000CAA0BBB0BDC0199278827DA
S113144060E070E0842B952BA62BB72B80931E01B4
S113145090931F01A0932001B0932101B09B1BC066
S11314604091840050918500C9010196092E000C19
S1131470AA0BBB0BDC019927882760E070E0842B62
S1131480952BA62BB72B80931E0190931F01A0933D
S11314902001B0932101E091D801F091D901309756
S11314A039F06DE070E0809140019091410109951F
S11314B00E944804FF91EF91BF91AF919F918F914A
S11314C07F916F915F914F913F912F910F900FBE3C
S11314D00F901F9018951F920F920FB60F92112420
S11314E02F933F934F935F936F937F938F939F9328
S11314F0AF93BF93EF93FF9320911C0130911D0193
S11315004091840050918500C901032E000CAA0B60
S1131510BB0BDC019927882760E070E0842B952BB6
S1131520A62BB72B80931E0190931F01A09320013B
S1131530B0932101B09B1BC0409184005091850061
S1131540C9010196092E000CAA0BBB0BDC019927DB
S1131550882760E070E0842B952BA62BB72B809313
S11315601E0190931F01A0932001B0932101E091EB
S1131570DA01F091DB01309739F06EE070E0809190
S113158042019091430109950E944804FF91EF9113
S1131590BF91AF919F918F917F916F915F914F9187
S11315A03F912F910F900FBE0F901F9018951F928F
S11315B00F920FB60F9211242F933F934F935F9383
S11315C06F937F938F939F93AF93BF93EF93FF9307
S11315D020911C0130911D0140918400509185009F
S11315E0C901032E000CAA0BBB0BDC019927882729
S11315F060E070E0842B952BA62BB72B80931E0103
S113160090931F01A0932001B0932101B09B1BC0B4
S11316104091840050918500C9010196092E000C67
S1131620AA0BBB0BDC019927882760E070E0842BB0
S1131630952BA62BB72B80931E0190931F01A0938B
S11316402001B0932101E091DC01F091DD0130979C
S113165039F06FE070E08091440190914501099563
S11316600E944804FF91EF91BF91AF919F918F9198
S11316707F916F915F914F913F912F910F900FBE8A
S11316800F901F9018951F920F920FB60F9211246E
S11316902F933F934F935F936F937F938F939F9376
S11316A0AF93BF93EF93FF9320911C0130911D01E1
S11316B04091840050918500C901032E000CAA0BAF
S11316C0BB0BDC019927882760E070E0842B952B05
S11316D0A62BB72B80931E0190931F01A09320018A
S11316E0B0932101B09B1BC04091840050918500B0
S11316F0C9010196092E000CAA0BBB0BDC0199272A
S1131700882760E070E0842B952BA62BB72B809361
S11317101E0190931F01A0932001B0932101E09139
S1131720DE01F091DF01309739F060E170E08091E3
S113173046019091470109950E944804FF91EF9159
S1131740BF91AF919F918F917F916F915F914F91D5
S11317503F912F910F900FBE0F901F9018951F92DD
S11317600F920FB60F9211242F933F934F935F93D1
S11317706F937F938F939F93AF93BF93EF93FF9355
S113178020911C0130911D014091840050918500ED
S1131790C901032E000CAA0BBB0BDC019927882777
S11317A060E070E0842B952BA62BB72B80931E0151
S11317B090931F01A0932001B0932101B09B1BC003
S11317C04091840050918500C9010196092E000CB6
S11317D0AA0BBB0BDC019927882760E070E0842BFF
S11317E0952BA62BB72B80931E0190931F01A093DA
S11317F02001B0932101E091E001F091E1013097E3
S113180039F061E170E080914801909149010995B6
S11318100E944804FF91EF91BF91AF919F918F91E6
S11318207F916F915F914F913F912F910F900FBED8
S11318300F901F901895EF92FF920F931F93CF93E1
S1131840DF937B01EB01A881B981109761F1FC0161
S1131850068117812085318516964D915D916D9194
S11318607C911997041715072607370714F41BC032
S1131870DF01ED91FC911197309749F04681578132
S11318806085718504171507260737078CF7EC0167
S1131890F983E883109721F4F7019183808307C0CB
S11318A08D939C9304C0EC01B983A883F5CFDF9199
S11318B0CF911F910F91FF90EF900895EF92FF92B7
S11318C00F931F93CF93DF937B01EB01A881B98121
S11318D0109761F1FC0102811381248135811296F4
S11318E04D915D916D917C9115970417150726070D
S11318F0370714F41BC0DF01ED91FC911197309769
S113190049F04281538164817581041715072607C4
S113191037078CF7EC01F983E883109721F4F7017A
S11319209183808307C08D939C9304C0EC01B98399
S1131930A883F5CFDF91CF911F910F91FF90EF9086
S11319400895DC01ED91FC911197309759F48FEFD4
S11319508093EC008093ED008093EE0081E083BFE0
S11319608895FDCF208131812D933C93CF0108953B
S11319701F920F920FB60F9211242F933F934F9300
S11319805F936F937F938F939F93EF93FF938091D4
S11319901C0190911D01019690931D0180931C01DF
S11319A0E0912201F0912301309701F142815381AA
S11319B06481758186179707C9F4CA012091840050
S11319C030918500421B530B4130510529F480911D
S11319D084009091850001969093890080938800FB
S11319E0EFE6F0E080818260808305C0EFE6F0E0FE
S11319F080818D7F8083FF91EF919F918F917F9163
S1131A006F915F914F913F912F910F900FBE0F9067
S1131A101F9018951F920F920FB60F921124CF9218
S1131A20DF92EF92FF922F933F934F935F936F93C5
S1131A307F938F939F93AF93BF93EF93FF93C09044
S1131A401C01D0901D012091840030918500B09933
S1131A500FC00D2C000CEE08FF08D601992788272B
S1131A606901E12CF12CC82AD92AEA2AFB2A15C0DB
S1131A7020918400309185008FEFC81AD80A0D2C6C
S1131A80000CEE08FF08D601992788276901E12C8C
S1131A90F12CC82AD92AEA2AFB2AE0912201F091E2
S1131AA02301309709F442C082819381A481B581D6
S1131AB08C199D09AE09BF09181619061A061B06CA
S1131AC0ECF182E291E00E94A10C64E271E00E94D8
S1131AD01B0CE0912201F0912301309739F18281AE
S1131AE09381A481B5818C199D09AE09BF0918168B
S1131AF019061A061B062CF721C09C01409184008C
S1131B0050918500841B950B019731F4209184003A
S1131B10309185002F5F3F4F3093890020938800D8
S1131B20EFE6F0E080818260808305C0EFE6F0E0BC
S1131B3080818D7F80830E9448040CC082819381C0
S1131B40A481B58120911C0130911D012A173B0706
S1131B5069F7D3CFFF91EF91BF91AF919F918F918F
S1131B607F916F915F914F913F912F91FF90EF90F3
S1131B70DF90CF900F900FBE0F901F9018953F925B
S1131B804F925F926F927F928F929F92AF92BF9289
S1131B90CF92DF92EF92FF920F931F93CF93DF9335
S1131BA02B013C0149015A018FB78078382EF894F3
S1131BB086E091E00E94A10CEC011B870A87FD8658
S1131BC0EC86DF86CE86332061F0E0910001F0914F
S1131BD001010280F381E02D82819381A481B5818A
S1131BE008C080911E0190911F01A0912001B09125
S1131BF02101480E591E6A1E7B1E4A825B826C823A
S1131C007D82181419041A041B0444F00F2E88242E
S1131C108A94982CA82CFFE7BF2EF02D840C951CD9
S1131C20A61CB71C8E829F82A886B98680911C014F
S1131C3090911D014091840050918500B0990EC08F
S1131C40092E000CAA0BBB0BDC019927882760E046
S1131C5070E0842B952BA62BB72B13C02091840006
S1131C60309185000196092E000CAA0BBB0BDC01F8
S1131C7099278827A90160E070E0842B952BA62B77
S1131C80B72B481A590A6A0A7B0A14141504160455
S1131C901704ACF562E271E0CE010E945E0CE091A3
S1131CA02201F0912301309721F182819381A48153
S1131CB0B58120911C0130911D012A173B07C9F4FD
S1131CC09C014091840050918500841B950B0197E1
S1131CD031F420918400309185002F5F3F4F309381
S1131CE0890020938800EFE6F0E0808182608083A1
S1131CF041C0EFE6F0E080818D7F80833BC064E2E9
S1131D0071E0CE010E941B0C3320B9F180910401D3
S1131D1090910501009781F1E0910201F091030196
S1131D20209124013091250102811381D901169655
S1131D304D915D916D917C911997D80116960D91F5
S1131D401D912D913C911997401B510B620B730B04
S1131D509AF4DC012D913C91119730930501209365
S1131D600401ED93FC9390930301809302010E947C
S1131D70280402C0332009F07894CE01DF91CF917A
S1131D801F910F91FF90EF90DF90CF90BF90AF9095
S1131D909F908F907F906F905F904F903F900895A9
S1131DA0CF92DF92EF92FF920F931F93CF93DF9323
S1131DB0EC017B016A011FB71078F894A881B981FE
S1131DC0109761F11496ED91FC911597309741F0BD
S1131DD0A081B1811496ED91FC9115973097C1F7CC
S1131DE020910001309101012A173B0721F01123B2
S1131DF009F43DC007C0112309F43CC078948FEF67
S1131E009FEF52C08A819B810097D1F1FC0115821A
S1131E10148236C0789480E090E046C0809100013E
S1131E209091010199838883112329F08A819B81F0
S1131E30019709F07894B601CE01F7010995F82EBF
S1131E40092F8FB7F894198218828A819B81823076
S1131E50910538F01B821A82FC01158214820E94BB
S1131E602804112351F078948F2D902F1DC08FEFEB
S1131E709FEF1AC08FEF9FEF17C08F2D902F14C0C4
S1131E803B832A83F901D583C483CD010E942804AE
S1131E90E0910001F091010182819381892B09F481
S1131EA0B9CFF983E883C2CFDF91CF911F910F910E
S1131EB0FF90EF90DF90CF90089500910001109172
S1131EC0010184E291E00E94A10CEC01D801139677
S1131ED09C938E93129778944E855F856C857D854F
S1131EE08A859B850E94D00E8FB7F8948091060155
S1131EF09091070199838883D0930701C0930601C9
S1131F00E0910201F091030100811181E8012A812D
S1131F103B81A0912401B09125011097C1F02115B6
S1131F20310559F216968D919D910D90BC91A02D7D
S1131F30E9014E815F8168857985841B950BA60B29
S1131F40B70B181619061A061B060CF0B6CF109319
S1131F500301009302018091040190910501918392
S1131F608083F0930501E0930401A0910201B091F4
S1131F7003011496ED91FC911597309741F0A081DF
S1131F80B1811496ED91FC9115973097C1F7CD016D
S1131F900E94280492CF4231B8F42FB7F89450E04D
S1131FA0440F551FFA01EA5DFE4F91838083FA01C5
S1131FB0E254FE4F7183608341E050E0FC0153839F
S1131FC0428322230CF4789408958C017B016A01E6
S1131FD08FB7F8940E94BD037894E114F10441F0A2
S1131FE020E030E0A90160E070E0CB010E94BF0D69
S1131FF08FB7F8940E944804789481E083BF889551
S1132000FDCF052E97FB1EF400940E94181057FD77
S113201007D00E94201007FC03D04EF40C94181033
S113202050954095309521953F4F4F4F5F4F089500
S113203090958095709561957F4F8F4F9F4F089530
S1132040A1E21A2EAA1BBB1BFD010DC0AA1FBB1FB8
S1132050EE1FFF1FA217B307E407F50720F0A21B2A
S1132060B30BE40BF50B661F771F881F991F1A9497
S113207069F760957095809590959B01AC01BD01C1
S1132080CF010895DC012D923D924D925D926D92A7
S11320907D928D929D92AD92BD92CD92DD92ED9204
S11320A0FD920D931D93CD93DD93FF91EF918DB729
S11320B08D938EB78D938FB78D93ED93FD93882772
S11320C099270994DC01CB0181309105811D2D9064
S11320D03D904D905D906D907D908D909D90AD90D4
S11320E0BD90CD90DD90ED90FD900D911D91CD9121
S11320F0DD91ED91FD910D90F894FEBF0FBEEDBF03
S10D2100ED91FD910994F894FFCFCE
S113210AE201E2014A01FF0151151001111E111BDE
S10F211A500B411B411F1101511F510BC0
S9030000FC
