:100000000C942E000C94EF060C9477070C94FF07C9
:100010000C9487080C940F090C944B000C946E12EE
:100020000C944B000C94E0110C9497090C941F0A4B
:100030000C94A70A0C942F0B0C94B70B0C943F0C48
:100040000C94C70C0C944F0D0C94D70D0C945F0EB0
:100050000C94E70E0C946F0F0C94F70F11241FBE35
:10006000CFEFD4E0DEBFCDBF11E0A0E0B1E0E6E32A
:10007000F2E302C005900D92AC31B107D9F724E04C
:10008000ACE1B1E001C01D92AF36B207E1F70E94CA
:10009000AD030C9419190C940000CF92DF92EF92EB
:1000A000FF920F931F93CF93DF9300D0CDB7DEB7AE
:1000B0009A83898383E290E0FC018081882F90E01D
:1000C00080749927892BB9F489819A81FC018085F4
:1000D0009185C12CD12C0F2EFFE5EF2EF4E0FF2EE1
:1000E000F02D8C0120E030E0A90160E070E0CB0150
:1000F0000E948F14B3C083E290E0FC0180818823CA
:10010000BCF089819A81FC0180859185C12CD12C1C
:100110000F2EF0EEEF2EF4E0FF2EF02D8C0120E0FC
:1001200030E0A90160E070E0CB010E948F1496C01E
:1001300083E290E0FC018081882F90E08071992714
:10014000892BB9F489819A81FC0180859185C12C24
:10015000D12C0F2EF6E4EF2EF5E0FF2EF02D8C01C2
:1001600020E030E0A90160E070E0CB010E948F1434
:1001700075C08CE290E0FC018081882F90E088704F
:100180009927892B89F589819A81FC012085318500
:1001900089819A81FC018481958128173907C9F4E6
:1001A00089819A81FC0180859185FC0187819085F8
:1001B000C12CD12C0F2EF0E4EF2EF2E0FF2EF02D0B
:1001C0008C0120E030E0A90160E070E0CB010E94EA
:1001D0008F1489819A81FC012681378189819A81D6
:1001E000FC01318720873AC08CE290E0FC018081DD
:1001F000882F90E084709927892B81F589819A81D5
:10020000FC012085318589819A81FC018681978155
:1002100028173907C9F489819A81FC018085918565
:10022000FC0187819085C12CD12C0F2EF0E4EF2E9C
:10023000F2E0FF2EF02D8C0120E030E0A90160E01B
:1002400070E0CB010E948F1489819A81FC01248186
:10025000358189819A81FC013187208729813A8102
:1002600089819A81FC018085918569010F2EF6EDC7
:10027000EF2EF5E0FF2EF02D8C0120E030E0A901FB
:1002800064E87EE180E090E00E948F1400000F900F
:100290000F90DF91CF911F910F91FF90EF90DF9022
:1002A000CF900895CF92DF92EF92FF920F931F931A
:1002B000CF93DF9300D0CDB7DEB79A83898389814E
:1002C0009A81FC0184819581FC018481282F30E092
:1002D00089819A81FC0184819581FC0187819085C7
:1002E00069010F2EFAE0EF2EF2E0FF2EF02D8C01C7
:1002F00020E030E0A90160E070E0CB010E948F14A3
:1003000089819A81FC0186819781FC018481282F53
:1003100030E089819A81FC0186819781FC01878187
:10032000908569010F2EF5E2EF2EF2E0FF2EF02D01
:100330008C0120E030E0A90160E070E0CB010E9478
:100340008F140E94BA010E9480028EEF90E0FC019F
:10035000108284EF90E021E0FC01208300000F90E8
:100360000F90DF91CF911F910F91FF90EF90DF9051
:10037000CF900895CF93DF93CDB7DEB784E290E0BE
:1003800024E230E0F90120812F72FC0120838DE20C
:1003900090E02DE230E0F9012081237FFC012083F1
:1003A00085E290E025E230E0F9012081206DFC013A
:1003B00020838EE290E02EE230E0F90120812C6073
:1003C000FC0120838DE390E02DE330E0F9012081F2
:1003D000206CFC0120838CE690E02CE630E0F901F3
:1003E0002081206DFC0120838BE690E02BE630E03D
:1003F000F90120812C60FC01208389E690E029E648
:1004000030E0F90120812260FC0120830000DF91AF
:10041000CF910895CF93DF9300D01F92CDB7DEB771
:100420009A8389836B838B81882F90E0A0E0B0E072
:1004300040E050E0BC01CD010E94300300000F906D
:100440000F900F90DF91CF910895CF93DF9300D05D
:100450001F92CDB7DEB79A8389836B838B81882FF8
:1004600090E0A0E0B0E044E050E0BC01CD010E948B
:10047000300300000F900F900F90DF91CF910895FF
:10048000CF93DF9300D0CDB7DEB79A83898389817C
:100490009A81FC0184818823B9F089819A81FC01C9
:1004A0008481882F90E021E0892B09F420E081E00D
:1004B0008227882F90E0282F217089819A81FC0162
:1004C00024830E948B0316C089819A81FC01848158
:1004D000882F90E021E0892B09F420E081E0822739
:1004E000882F90E0282F217089819A81FC01248334
:1004F0000E949C0300000F900F90DF91CF91089510
:10050000CF93DF93CDB7DEB784EE90E020ECFC0113
:10051000208387EE90E02FE0FC01208385EE90E0C1
:1005200027EBFC01208386EE90E027E0FC0120838E
:100530000000DF91CF910895CF93DF93CDB7DEB761
:100540006F970FB6F894DEBF0FBECDBF8D8F7F8F34
:100550006E8F8CEE90E09A8389831C8284E1E8E0C0
:10056000F1E0DE01199601900D928A95E1F78E8DEA
:100570009F8D99230CF46AC08E8D9F8D06970CF089
:1005800065C01E821D828D8D803318F48D8D8A3357
:1005900088F48D8D882F90E0C097880F991F9E0159
:1005A0002F5F3F4F820F931F0896FC01808191813E
:1005B0009E838D838E8D9F8D959587959C018981D6
:1005C0009A81820F931F9A8389838E8D9F8D81706C
:1005D0009927892B19F480EF8B8302C08FE08B83DE
:1005E00018861F822EC08D818F708C838D819E8195
:1005F000929582958F7089279F7089279E838D831E
:100600008E8D9F8D81709927892B21F08C81829509
:10061000807F8C8389819A81FC0190818B819823D2
:100620008C81292F282B89819A81FC012083898143
:100630009A8105969A8389838F81988501969887F8
:100640008F838F819885049774F201C000006F96A4
:100650000FB6F894DEBF0FBECDBFDF91CF910895E6
:10066000CF93DF93CDB7DEB728970FB6F894DEBFF0
:100670000FBECDBF6B837C838D839E8358874F8352
:100680001A8219828F8198859A8389838B819C81B4
:10069000AD81BE8124E630E040E050E0BC01CD01F8
:1006A0000E947D18DC01CB012AE030E040E050E000
:1006B000BC01CD010E947D18DA01C90120E3280F99
:1006C00089819A81BC01822F0E949C0289819A8132
:1006D00001969A8389838B819C81AD81BE812AE0BA
:1006E00030E040E050E0BC01CD010E947D18DC010B
:1006F000CB0120E3280F89819A81BC01822F0E94BF
:100700009C02000028960FB6F894DEBF0FBECDBF46
:10071000DF91CF910895CF93DF93CDB7DEB78EEF02
:1007200090E0FC01108284EF90E021E0FC01208346
:100730000000DF91CF910895CF93DF93CDB7DEB75F
:100740008EEF90E021E0FC01208384EF90E0FC013B
:1007500010820000DF91CF910895CF93DF93CDB742
:10076000DEB7AF970FB6F894DEBF0FBECDBF1A82CB
:1007700019821C821B821E821D8218861F82198686
:100780001B861A861D861C861E861F86188ACE0129
:1007900005969A8B898B1B8A84E08C8BCE010196FF
:1007A0009E8B8D8B1F8A198E188E1B8E1A8E1C8E17
:1007B0001D8E1E8ECE01059698A38F8F84E089A38F
:1007C00086E08AA3CE0101969CA38BA31DA21FA243
:1007D0001EA219A618A6CE010A969BA78AA7CE012B
:1007E00048969DA78CA7CE010A969FA78EA7CE01FB
:1007F000869641E06DE470E00E94EB17CE0186968C
:1008000042E06DE470E00E94EB17CE01869640E076
:1008100050E062E571E00E942E18AF960FB6F89492
:10082000DEBF0FBECDBFDF91CF910895CF93DF9391
:1008300000D01F92CDB7DEB79A8389836B838EE297
:1008400090E02EE230E0F9012081622F2B81422FCF
:1008500050E021E030E002C0220F331F4A95E2F75A
:100860002627FC01208300000F900F900F90DF914E
:10087000CF910895CF93DF9300D01F92CDB7DEB70D
:100880009A8389836B838EE290E02EE230E0F90157
:100890002081622F2B81422F50E021E030E002C006
:1008A000220F331F4A95E2F720952623FC0120836F
:1008B00000000F900F900F90DF91CF910895CF928D
:1008C000DF92EF92FF920F931F93CF93DF9300D0AD
:1008D000CDB7DEB79A83898389819A81FC018481AF
:1008E000833650F489819A81FC01848121E0280FAC
:1008F00089819A81FC01248389819A81FC019585F3
:1009000081E08927882399F089819A81C12CD12C93
:100910000F2EFEE4EF2EF6E0FF2EF02D8C0120E0EE
:1009200030E0A90160E070E0CB010E948F14898162
:100930009A81FC0181858430E1F489819A81FC01EE
:100940008481282F30E089819A81FC0187819085FC
:1009500069010F2EF5E2EF2EF2E0FF2EF02D8C0153
:1009600020E030E0A90160E070E0CB010E948F142C
:100970001BC089819A81FC018481282F30E0898104
:100980009A81FC018781908569010F2EFAE0EF2E94
:10099000F2E0FF2EF02D8C0120E030E0A90160E0B4
:1009A00070E0CB010E948F1400000F900F90DF9138
:1009B000CF911F910F91FF90EF90DF90CF9008950E
:1009C000CF92DF92EF92FF920F931F93CF93DF931B
:1009D00000D0CDB7DEB79A83898389819A81FC01E3
:1009E0008481882351F089819A81FC0184812FEFD1
:1009F000280F89819A81FC01248389819A81FC01D5
:100A000081858430E1F489819A81FC018481282FD9
:100A100030E089819A81FC018781908569010F2EE0
:100A2000F5E2EF2EF2E0FF2EF02D8C0120E030E019
:100A3000A90160E070E0CB010E948F141BC0898186
:100A40009A81FC018481282F30E089819A81FC0100
:100A50008781908569010F2EFAE0EF2EF2E0FF2EDC
:100A6000F02D8C0120E030E0A90160E070E0CB01C6
:100A70000E948F1400000F900F90DF91CF911F9173
:100A80000F91FF90EF90DF90CF900895CF92DF927B
:100A9000EF92FF920F931F93CF93DF9300D0CDB7C8
:100AA000DEB79A83898389819A81FC0184818823B6
:100AB00069F489819A81FC01258189819A81FC01EF
:100AC000248389819A81FC0115820CC089819A81D5
:100AD000FC01248189819A81FC01258389819A8185
:100AE000FC01148289819A81FC01958581E0892726
:100AF000882399F089819A81C12CD12C0F2EFEE494
:100B0000EF2EF6E0FF2EF02D8C0120E030E0A90161
:100B100060E070E0CB010E948F1489819A81FC0112
:100B200081858430E1F489819A81FC018481282FB8
:100B300030E089819A81FC018781908569010F2EBF
:100B4000F5E2EF2EF2E0FF2EF02D8C0120E030E0F8
:100B5000A90160E070E0CB010E948F141BC0898165
:100B60009A81FC018481282F30E089819A81FC01DF
:100B70008781908569010F2EFAE0EF2EF2E0FF2EBB
:100B8000F02D8C0120E030E0A90160E070E0CB01A5
:100B90000E948F1400000F900F90DF91CF911F9152
:100BA0000F91FF90EF90DF90CF900895CF92DF925A
:100BB000EF92FF920F931F93CF93DF9300D0CDB7A7
:100BC000DEB79A83898383E290E0FC018081882FDD
:100BD00090E080749927892B41F589819A81C12CF5
:100BE000D12C0F2EFFE5EF2EF4E0FF2EF02D8C011F
:100BF00020E030E0A90160E070E0CB010E948F149A
:100C000089819A81C12CD12C0F2EF6EDEF2EF5E0C3
:100C1000FF2EF02D8C0120E030E0A90164E87EE198
:100C200080E090E00E948F142DC083E290E0FC01F0
:100C3000808188233CF189819A81C12CD12C0F2E8F
:100C4000F0EEEF2EF4E0FF2EF02D8C0120E030E0EE
:100C5000A90160E070E0CB010E948F1489819A8124
:100C6000C12CD12C0F2EF6EDEF2EF5E0FF2EF02D3E
:100C70008C0120E030E0A90164E87EE180E090E0B2
:100C80000E948F1400000F900F90DF91CF911F9161
:100C90000F91FF90EF90DF90CF9008958F929F92E9
:100CA000AF92BF92CF92DF92EF92FF920F931F937A
:100CB000CF93DF9300D0CDB7DEB79A838983898144
:100CC0009A81FC018481882309F45AC089819A8120
:100CD00021E0FC01258789819A81FC018285282FEA
:100CE00030E089819A81FC018781908569010F2E0E
:100CF000F6E1EF2EF4E0FF2EF02D8C0120E030E045
:100D0000A90160E070E0CB010E948F1489819A8173
:100D1000FC018481282F30E040E050E080E291EA3D
:100D2000A7E0B0E0BC01CD010E947D18DA01C90145
:100D30009C01AD018DE790E0DC010E949C18DC0174
:100D4000CB0120EA3FE040E050E0BC01CD010E9431
:100D50007D18DA01C9014C015D0189819A81C12C9C
:100D6000D12C0F2EFEE4EF2EF6E0FF2EF02D8C019D
:100D700020E030E0A901C501B4010E948F141FC01A
:100D800089819A81FC01158689819A81FC0182857D
:100D9000282F30E089819A81FC0187819085690143
:100DA0000F2EFAE3EF2EF4E0FF2EF02D8C0120E061
:100DB00030E0A90160E070E0CB010E948F140000D8
:100DC0000F900F90DF91CF911F910F91FF90EF90B7
:100DD000DF90CF90BF90AF909F908F9008951F921B
:100DE0000F9200905F000F9211242F933F934F9327
:100DF0005F936F937F938F939F93AF93BF93EF9383
:100E0000FF93CF93DF93CDB7DEB78091240190910C
:100E10002501092E000CAA0BBB0BAC01332722279E
:100E200084E890E0FC0180819181CC01A0E0B0E0F9
:100E3000822B932BA42BB52B80932001909321011F
:100E4000A0932201B093230186E390E0FC0180810E
:100E5000882F90E081709927892B01F180912401DE
:100E6000909125010196092E000CAA0BBB0BAC0139
:100E70003327222784E890E0FC0180819181CC0116
:100E8000A0E0B0E0822B932BA42BB52B8093200104
:100E900090932101A0932201B09323018091BE0180
:100EA0009091BF01892B61F02091BE013091BF016B
:100EB000809126019091270160E070E0F901099589
:100EC0000E943B140000DF91CF91FF91EF91BF9101
:100ED000AF919F918F917F916F915F914F913F91D2
:100EE0002F910F9000925F000F901F9018951F9206
:100EF0000F9200905F000F9211242F933F934F9316
:100F00005F936F937F938F939F93AF93BF93EF9371
:100F1000FF93CF93DF93CDB7DEB7809124019091FB
:100F20002501092E000CAA0BBB0BAC01332722278D
:100F300084E890E0FC0180819181CC01A0E0B0E0E8
:100F4000822B932BA42BB52B80932001909321010E
:100F5000A0932201B093230186E390E0FC018081FD
:100F6000882F90E081709927892B01F180912401CD
:100F7000909125010196092E000CAA0BBB0BAC0128
:100F80003327222784E890E0FC0180819181CC0105
:100F9000A0E0B0E0822B932BA42BB52B80932001F3
:100FA00090932101A0932201B09323018091C0016D
:100FB0009091C101892B61F02091C0013091C10154
:100FC000809128019091290161E070E0F901099573
:100FD0000E943B140000DF91CF91FF91EF91BF91F0
:100FE000AF919F918F917F916F915F914F913F91C1
:100FF0002F910F9000925F000F901F9018951F92F5
:101000000F9200905F000F9211242F933F934F9304
:101010005F936F937F938F939F93AF93BF93EF9360
:10102000FF93CF93DF93CDB7DEB7809124019091EA
:101030002501092E000CAA0BBB0BAC01332722277C
:1010400084E890E0FC0180819181CC01A0E0B0E0D7
:10105000822B932BA42BB52B8093200190932101FD
:10106000A0932201B093230186E390E0FC018081EC
:10107000882F90E081709927892B01F180912401BC
:10108000909125010196092E000CAA0BBB0BAC0117
:101090003327222784E890E0FC0180819181CC01F4
:1010A000A0E0B0E0822B932BA42BB52B80932001E2
:1010B00090932101A0932201B09323018091C2015A
:1010C0009091C301892B61F02091C2013091C3013D
:1010D00080912A0190912B0162E070E0F90109955D
:1010E0000E943B140000DF91CF91FF91EF91BF91DF
:1010F000AF919F918F917F916F915F914F913F91B0
:101100002F910F9000925F000F901F9018951F92E3
:101110000F9200905F000F9211242F933F934F93F3
:101120005F936F937F938F939F93AF93BF93EF934F
:10113000FF93CF93DF93CDB7DEB7809124019091D9
:101140002501092E000CAA0BBB0BAC01332722276B
:1011500084E890E0FC0180819181CC01A0E0B0E0C6
:10116000822B932BA42BB52B8093200190932101EC
:10117000A0932201B093230186E390E0FC018081DB
:10118000882F90E081709927892B01F180912401AB
:10119000909125010196092E000CAA0BBB0BAC0106
:1011A0003327222784E890E0FC0180819181CC01E3
:1011B000A0E0B0E0822B932BA42BB52B80932001D1
:1011C00090932101A0932201B09323018091C40147
:1011D0009091C501892B61F02091C4013091C50126
:1011E00080912C0190912D0163E070E0F901099547
:1011F0000E943B140000DF91CF91FF91EF91BF91CE
:10120000AF919F918F917F916F915F914F913F919E
:101210002F910F9000925F000F901F9018951F92D2
:101220000F9200905F000F9211242F933F934F93E2
:101230005F936F937F938F939F93AF93BF93EF933E
:10124000FF93CF93DF93CDB7DEB7809124019091C8
:101250002501092E000CAA0BBB0BAC01332722275A
:1012600084E890E0FC0180819181CC01A0E0B0E0B5
:10127000822B932BA42BB52B8093200190932101DB
:10128000A0932201B093230186E390E0FC018081CA
:10129000882F90E081709927892B01F1809124019A
:1012A000909125010196092E000CAA0BBB0BAC01F5
:1012B0003327222784E890E0FC0180819181CC01D2
:1012C000A0E0B0E0822B932BA42BB52B80932001C0
:1012D00090932101A0932201B09323018091C60134
:1012E0009091C701892B61F02091C6013091C7010F
:1012F00080912E0190912F0164E070E0F901099531
:101300000E943B140000DF91CF91FF91EF91BF91BC
:10131000AF919F918F917F916F915F914F913F918D
:101320002F910F9000925F000F901F9018951F92C1
:101330000F9200905F000F9211242F933F934F93D1
:101340005F936F937F938F939F93AF93BF93EF932D
:10135000FF93CF93DF93CDB7DEB7809124019091B7
:101360002501092E000CAA0BBB0BAC013327222749
:1013700084E890E0FC0180819181CC01A0E0B0E0A4
:10138000822B932BA42BB52B8093200190932101CA
:10139000A0932201B093230186E390E0FC018081B9
:1013A000882F90E081709927892B01F18091240189
:1013B000909125010196092E000CAA0BBB0BAC01E4
:1013C0003327222784E890E0FC0180819181CC01C1
:1013D000A0E0B0E0822B932BA42BB52B80932001AF
:1013E00090932101A0932201B09323018091C80121
:1013F0009091C901892B61F02091C8013091C901F8
:10140000809130019091310165E070E0F90109951A
:101410000E943B140000DF91CF91FF91EF91BF91AB
:10142000AF919F918F917F916F915F914F913F917C
:101430002F910F9000925F000F901F9018951F92B0
:101440000F9200905F000F9211242F933F934F93C0
:101450005F936F937F938F939F93AF93BF93EF931C
:10146000FF93CF93DF93CDB7DEB7809124019091A6
:101470002501092E000CAA0BBB0BAC013327222738
:1014800084E890E0FC0180819181CC01A0E0B0E093
:10149000822B932BA42BB52B8093200190932101B9
:1014A000A0932201B093230186E390E0FC018081A8
:1014B000882F90E081709927892B01F18091240178
:1014C000909125010196092E000CAA0BBB0BAC01D3
:1014D0003327222784E890E0FC0180819181CC01B0
:1014E000A0E0B0E0822B932BA42BB52B809320019E
:1014F00090932101A0932201B09323018091CA010E
:101500009091CB01892B61F02091CA013091CB01E0
:10151000809132019091330166E070E0F901099504
:101520000E943B140000DF91CF91FF91EF91BF919A
:10153000AF919F918F917F916F915F914F913F916B
:101540002F910F9000925F000F901F9018951F929F
:101550000F9200905F000F9211242F933F934F93AF
:101560005F936F937F938F939F93AF93BF93EF930B
:10157000FF93CF93DF93CDB7DEB780912401909195
:101580002501092E000CAA0BBB0BAC013327222727
:1015900084E890E0FC0180819181CC01A0E0B0E082
:1015A000822B932BA42BB52B8093200190932101A8
:1015B000A0932201B093230186E390E0FC01808197
:1015C000882F90E081709927892B01F18091240167
:1015D000909125010196092E000CAA0BBB0BAC01C2
:1015E0003327222784E890E0FC0180819181CC019F
:1015F000A0E0B0E0822B932BA42BB52B809320018D
:1016000090932101A0932201B09323018091CC01FA
:101610009091CD01892B61F02091CC013091CD01C9
:10162000809134019091350167E070E0F9010995EE
:101630000E943B140000DF91CF91FF91EF91BF9189
:10164000AF919F918F917F916F915F914F913F915A
:101650002F910F9000925F000F901F9018951F928E
:101660000F9200905F000F9211242F933F934F939E
:101670005F936F937F938F939F93AF93BF93EF93FA
:10168000FF93CF93DF93CDB7DEB780912401909184
:101690002501092E000CAA0BBB0BAC013327222716
:1016A00084E890E0FC0180819181CC01A0E0B0E071
:1016B000822B932BA42BB52B809320019093210197
:1016C000A0932201B093230186E390E0FC01808186
:1016D000882F90E081709927892B01F18091240156
:1016E000909125010196092E000CAA0BBB0BAC01B1
:1016F0003327222784E890E0FC0180819181CC018E
:10170000A0E0B0E0822B932BA42BB52B809320017B
:1017100090932101A0932201B09323018091CE01E7
:101720009091CF01892B61F02091CE013091CF01B2
:10173000809136019091370168E070E0F9010995D8
:101740000E943B140000DF91CF91FF91EF91BF9178
:10175000AF919F918F917F916F915F914F913F9149
:101760002F910F9000925F000F901F9018951F927D
:101770000F9200905F000F9211242F933F934F938D
:101780005F936F937F938F939F93AF93BF93EF93E9
:10179000FF93CF93DF93CDB7DEB780912401909173
:1017A0002501092E000CAA0BBB0BAC013327222705
:1017B00084E890E0FC0180819181CC01A0E0B0E060
:1017C000822B932BA42BB52B809320019093210186
:1017D000A0932201B093230186E390E0FC01808175
:1017E000882F90E081709927892B01F18091240145
:1017F000909125010196092E000CAA0BBB0BAC01A0
:101800003327222784E890E0FC0180819181CC017C
:10181000A0E0B0E0822B932BA42BB52B809320016A
:1018200090932101A0932201B09323018091D001D4
:101830009091D101892B61F02091D0013091D1019B
:10184000809138019091390169E070E0F9010995C2
:101850000E943B140000DF91CF91FF91EF91BF9167
:10186000AF919F918F917F916F915F914F913F9138
:101870002F910F9000925F000F901F9018951F926C
:101880000F9200905F000F9211242F933F934F937C
:101890005F936F937F938F939F93AF93BF93EF93D8
:1018A000FF93CF93DF93CDB7DEB780912401909162
:1018B0002501092E000CAA0BBB0BAC0133272227F4
:1018C00084E890E0FC0180819181CC01A0E0B0E04F
:1018D000822B932BA42BB52B809320019093210175
:1018E000A0932201B093230186E390E0FC01808164
:1018F000882F90E081709927892B01F18091240134
:10190000909125010196092E000CAA0BBB0BAC018E
:101910003327222784E890E0FC0180819181CC016B
:10192000A0E0B0E0822B932BA42BB52B8093200159
:1019300090932101A0932201B09323018091D201C1
:101940009091D301892B61F02091D2013091D30184
:1019500080913A0190913B016AE070E0F9010995AC
:101960000E943B140000DF91CF91FF91EF91BF9156
:10197000AF919F918F917F916F915F914F913F9127
:101980002F910F9000925F000F901F9018951F925B
:101990000F9200905F000F9211242F933F934F936B
:1019A0005F936F937F938F939F93AF93BF93EF93C7
:1019B000FF93CF93DF93CDB7DEB780912401909151
:1019C0002501092E000CAA0BBB0BAC0133272227E3
:1019D00084E890E0FC0180819181CC01A0E0B0E03E
:1019E000822B932BA42BB52B809320019093210164
:1019F000A0932201B093230186E390E0FC01808153
:101A0000882F90E081709927892B01F18091240122
:101A1000909125010196092E000CAA0BBB0BAC017D
:101A20003327222784E890E0FC0180819181CC015A
:101A3000A0E0B0E0822B932BA42BB52B8093200148
:101A400090932101A0932201B09323018091D401AE
:101A50009091D501892B61F02091D4013091D5016D
:101A600080913C0190913D016BE070E0F901099596
:101A70000E943B140000DF91CF91FF91EF91BF9145
:101A8000AF919F918F917F916F915F914F913F9116
:101A90002F910F9000925F000F901F9018951F924A
:101AA0000F9200905F000F9211242F933F934F935A
:101AB0005F936F937F938F939F93AF93BF93EF93B6
:101AC000FF93CF93DF93CDB7DEB780912401909140
:101AD0002501092E000CAA0BBB0BAC0133272227D2
:101AE00084E890E0FC0180819181CC01A0E0B0E02D
:101AF000822B932BA42BB52B809320019093210153
:101B0000A0932201B093230186E390E0FC01808141
:101B1000882F90E081709927892B01F18091240111
:101B2000909125010196092E000CAA0BBB0BAC016C
:101B30003327222784E890E0FC0180819181CC0149
:101B4000A0E0B0E0822B932BA42BB52B8093200137
:101B500090932101A0932201B09323018091D6019B
:101B60009091D701892B61F02091D6013091D70156
:101B700080913E0190913F016CE070E0F901099580
:101B80000E943B140000DF91CF91FF91EF91BF9134
:101B9000AF919F918F917F916F915F914F913F9105
:101BA0002F910F9000925F000F901F9018951F9239
:101BB0000F9200905F000F9211242F933F934F9349
:101BC0005F936F937F938F939F93AF93BF93EF93A5
:101BD000FF93CF93DF93CDB7DEB78091240190912F
:101BE0002501092E000CAA0BBB0BAC0133272227C1
:101BF00084E890E0FC0180819181CC01A0E0B0E01C
:101C0000822B932BA42BB52B809320019093210141
:101C1000A0932201B093230186E390E0FC01808130
:101C2000882F90E081709927892B01F18091240100
:101C3000909125010196092E000CAA0BBB0BAC015B
:101C40003327222784E890E0FC0180819181CC0138
:101C5000A0E0B0E0822B932BA42BB52B8093200126
:101C600090932101A0932201B09323018091D80188
:101C70009091D901892B61F02091D8013091D9013F
:101C800080914001909141016DE070E0F90109956A
:101C90000E943B140000DF91CF91FF91EF91BF9123
:101CA000AF919F918F917F916F915F914F913F91F4
:101CB0002F910F9000925F000F901F9018951F9228
:101CC0000F9200905F000F9211242F933F934F9338
:101CD0005F936F937F938F939F93AF93BF93EF9394
:101CE000FF93CF93DF93CDB7DEB78091240190911E
:101CF0002501092E000CAA0BBB0BAC0133272227B0
:101D000084E890E0FC0180819181CC01A0E0B0E00A
:101D1000822B932BA42BB52B809320019093210130
:101D2000A0932201B093230186E390E0FC0180811F
:101D3000882F90E081709927892B01F180912401EF
:101D4000909125010196092E000CAA0BBB0BAC014A
:101D50003327222784E890E0FC0180819181CC0127
:101D6000A0E0B0E0822B932BA42BB52B8093200115
:101D700090932101A0932201B09323018091DA0175
:101D80009091DB01892B61F02091DA013091DB0128
:101D900080914201909143016EE070E0F901099554
:101DA0000E943B140000DF91CF91FF91EF91BF9112
:101DB000AF919F918F917F916F915F914F913F91E3
:101DC0002F910F9000925F000F901F9018951F9217
:101DD0000F9200905F000F9211242F933F934F9327
:101DE0005F936F937F938F939F93AF93BF93EF9383
:101DF000FF93CF93DF93CDB7DEB78091240190910D
:101E00002501092E000CAA0BBB0BAC01332722279E
:101E100084E890E0FC0180819181CC01A0E0B0E0F9
:101E2000822B932BA42BB52B80932001909321011F
:101E3000A0932201B093230186E390E0FC0180810E
:101E4000882F90E081709927892B01F180912401DE
:101E5000909125010196092E000CAA0BBB0BAC0139
:101E60003327222784E890E0FC0180819181CC0116
:101E7000A0E0B0E0822B932BA42BB52B8093200104
:101E800090932101A0932201B09323018091DC0162
:101E90009091DD01892B61F02091DC013091DD0111
:101EA00080914401909145016FE070E0F90109953E
:101EB0000E943B140000DF91CF91FF91EF91BF9101
:101EC000AF919F918F917F916F915F914F913F91D2
:101ED0002F910F9000925F000F901F9018951F9206
:101EE0000F9200905F000F9211242F933F934F9316
:101EF0005F936F937F938F939F93AF93BF93EF9372
:101F0000FF93CF93DF93CDB7DEB7809124019091FB
:101F10002501092E000CAA0BBB0BAC01332722278D
:101F200084E890E0FC0180819181CC01A0E0B0E0E8
:101F3000822B932BA42BB52B80932001909321010E
:101F4000A0932201B093230186E390E0FC018081FD
:101F5000882F90E081709927892B01F180912401CD
:101F6000909125010196092E000CAA0BBB0BAC0128
:101F70003327222784E890E0FC0180819181CC0105
:101F8000A0E0B0E0822B932BA42BB52B80932001F3
:101F900090932101A0932201B09323018091DE014F
:101FA0009091DF01892B61F02091DE013091DF01FA
:101FB000809146019091470160E170E0F901099537
:101FC0000E943B140000DF91CF91FF91EF91BF91F0
:101FD000AF919F918F917F916F915F914F913F91C1
:101FE0002F910F9000925F000F901F9018951F92F5
:101FF0000F9200905F000F9211242F933F934F9305
:102000005F936F937F938F939F93AF93BF93EF9360
:10201000FF93CF93DF93CDB7DEB7809124019091EA
:102020002501092E000CAA0BBB0BAC01332722277C
:1020300084E890E0FC0180819181CC01A0E0B0E0D7
:10204000822B932BA42BB52B8093200190932101FD
:10205000A0932201B093230186E390E0FC018081EC
:10206000882F90E081709927892B01F180912401BC
:10207000909125010196092E000CAA0BBB0BAC0117
:102080003327222784E890E0FC0180819181CC01F4
:10209000A0E0B0E0822B932BA42BB52B80932001E2
:1020A00090932101A0932201B09323018091E0013C
:1020B0009091E101892B61F02091E0013091E101E3
:1020C000809148019091490161E170E0F901099521
:1020D0000E943B140000DF91CF91FF91EF91BF91DF
:1020E000AF919F918F917F916F915F914F913F91B0
:1020F0002F910F9000925F000F901F901895CF9333
:10210000DF93CDB7DEB728970FB6F894DEBF0FBECA
:10211000CDBF9E838D8378876F831A8219828F81CA
:102120009885FC01808191819C838B830BC08B817E
:102130009C819A8389838B819C81FC018081918120
:102140009C838B838B819C81892B99F08B819C81D3
:10215000FC0126813781408551858D819E81FC015E
:1021600086819781A085B18582179307A407B5075B
:10217000F4F68D819E812B813C81FC01318320838B
:1021800089819A81892B41F48F8198852D813E81A7
:10219000FC013183208307C089819A812D813E8192
:1021A000FC0131832083000028960FB6F894DEBF2F
:1021B0000FBECDBFDF91CF910895CF93DF93CDB701
:1021C000DEB728970FB6F894DEBF0FBECDBF9E8353
:1021D0008D8378876F831A8219828F819885FC019D
:1021E000808191819C838B830BC08B819C819A839E
:1021F00089838B819C81FC01808191819C838B836D
:102200008B819C81892B99F08B819C81FC0122819F
:102210003381448155818D819E81FC01828193812E
:10222000A481B58182179307A407B507F4F68D81C1
:102230009E812B813C81FC013183208389819A819D
:10224000892B41F48F8198852D813E81FC0131835A
:10225000208307C089819A812D813E81FC013183D1
:102260002083000028960FB6F894DEBF0FBECDBFC6
:10227000DF91CF910895CF93DF9300D000D0CDB7F9
:10228000DEB79C838B838B819C81FC018081918153
:102290009A83898389819A81892B59F089819A81CE
:1022A000FC01208131818B819C81FC013183208361
:1022B00016C08CEE90E02FEFFC0120838DEE90E0B5
:1022C0002FEFFC0120838EEE90E02FEFFC012083A6
:1022D00083E590E021E0FC0120838895F9CF898196
:1022E0009A810F900F900F900F90DF91CF910895EA
:1022F000CF93DF9300D000D0CDB7DEB79A83898328
:102300007C836B838B819C81FC012081318189815D
:102310009A81FC01318320838B819C8129813A81C0
:10232000FC013183208300000F900F900F900F90DD
:10233000DF91CF910895CF93DF9300D000D0CDB738
:10234000DEB79A8389837C836B838B819C81FC01BC
:102350002081318189819A81FC01318320838B81A5
:102360009C8129813A81FC013183208300000F90F8
:102370000F900F900F90DF91CF910895CF93DF933F
:1023800000D000D0CDB7DEB79C838B838B819C813E
:10239000FC01808191819A83898389819A81FC01E2
:1023A000208131818B819C81FC0131832083898153
:1023B0009A810F900F900F900F90DF91CF91089519
:1023C0001F920F9200905F000F9211242F933F9362
:1023D0004F935F936F937F938F939F93AF93BF932D
:1023E000EF93FF93CF93DF93CDB7DEB780912401B6
:1023F000909125010196909325018093240180916D
:102400001E0190911F01892B09F44AC080911E0181
:1024100090911F01FC0182819381A481B581CD013E
:10242000BB2797FDB095AB2F9C0180912401909123
:10243000250128173907A1F528E830E080911E0111
:1024400090911F01FC0182819381A481B581AC012F
:1024500084E890E0FC0180819181BA01681B790BCE
:10246000CB01019739F484E890E0FC0180819181EF
:10247000019609C080911E0190911F01FC0182818B
:102480009381A481B581F901918380838FE690E0E7
:102490002FE630E0F90120812260FC01208309C091
:1024A0008FE690E02FE630E0F90120812D7FFC01DE
:1024B00020830000DF91CF91FF91EF91BF91AF9109
:1024C0009F918F917F916F915F914F913F912F914C
:1024D0000F9000925F000F901F9018951F920F921F
:1024E00000905F000F921124EF92FF920F931F93C1
:1024F0002F933F934F935F936F937F938F939F930C
:10250000AF93BF93EF93FF93CF93DF9300D000D0AF
:10251000CDB7DEB78091240190912501092E000CE2
:10252000AA0BBB0BAC013327222784E890E0FC0107
:1025300080819181CC01A0E0B0E0822B932BA42B71
:10254000B52B89839A83AB83BC8386E390E0FC013F
:102550008081882F90E081709927892B29F18091C3
:102560002401909125010196092E000CAA0BBB0BAA
:10257000AC013327222784E890E0FC01808191811F
:10258000CC01A0E0B0E0822B932BA42BB52B898348
:102590009A83AB83BC8308C08EE191E00E943B111B
:1025A0006CE171E00E947F1080911E0190911F01EB
:1025B000892BD1F080911E0190911F01FC01228195
:1025C00033814481558189819A81AB81BC817901B4
:1025D0008A01E81AF90A0A0B1B0BD801C701181661
:1025E00019061A061B06C4F680911E0190911F0160
:1025F000892B09F44AC080911E0190911F01FC01B2
:1026000082819381A481B581CD01BB2797FDB095CF
:10261000AB2F9C0180912401909125012817390747
:10262000A1F528E830E080911E0190911F01FC0186
:1026300082819381A481B581AC0184E890E0FC01A2
:10264000808191817A01E81AF90AC701019739F46A
:1026500084E890E0FC0180819181019609C080911D
:102660001E0190911F01FC0182819381A481B5819B
:10267000F901918380838FE690E02FE630E0F90145
:1026800020812260FC01208309C08FE690E02FE6C4
:1026900030E0F90120812D7FFC0120830E943B1452
:1026A00000000F900F900F900F90DF91CF91FF914E
:1026B000EF91BF91AF919F918F917F916F915F91BA
:1026C0004F913F912F911F910F91FF90EF900F909D
:1026D00000925F000F901F901895CF93DF9300D06A
:1026E000CDB7DEB79A838983809106019091070167
:1026F00006960E94D818892B69F489819A81909353
:1027000007018093060189819A81069661E070E055
:102710000E94F81800000F900F90DF91CF9108955C
:10272000EF92FF920F931F93CF93DF93CDB7DEB756
:1027300027970FB6F894DEBF0FBECDBF00910601FC
:10274000109107018CE191E00E943B11F801938305
:102750008283F801828193819C838B8381E08D83C6
:102760008D81882309F078948B819C81FC014685BA
:1027700057858B819C81FC01248535858B819C81CB
:10278000FC0182859385B9010E9426168FE590E0B1
:10279000FC01808180788D83F8948B819C8160E03E
:1027A00071E00E9478118091040190910501FC0173
:1027B00080819181FC01828193819F838E838091AE
:1027C0001C0190911D01892B19F18E819F81892B0C
:1027D00009F4B4CF80911C0190911D01FC01268168
:1027E0003781408551858E819F81FC01868197814B
:1027F000A085B18579018A01E81AF90A0A0B1B0B39
:10280000D801C701181619061A061B060CF096CF38
:1028100084E091E00E94BE1162E071E00E949B1191
:1028200080910401909105019A8389830AC089816E
:102830009A81FC0184819581FC01808191819A8338
:10284000898389819A81FC0184819581892B79F71B
:1028500089819A810E946D1371CFCF93DF93CDB799
:10286000DEB70E943B14789483E590E021E0FC0100
:1028700020838895F9CFEF92FF920F931F93CF9308
:10288000DF9300D0CDB7DEB78091040190910501B0
:10289000FC01828193819A83898380911C019091AC
:1028A0001D01892B91F18091020190910301892BE7
:1028B00061F189819A81892BD1F080911C019091DD
:1028C0001D01FC01268137814085518589819A81CE
:1028D000FC0186819781A085B18579018A01E81A7A
:1028E000F90A0A0B1B0BD801C701BB2374F482E061
:1028F00091E00E94BE1164E071E00E949B11809102
:102900000401909105010E946D1300000F900F903B
:10291000DF91CF911F910F91FF90EF900895CF928B
:10292000DF92EF92FF920F931F93CF93DF93CDB778
:10293000DEB765970FB6F894DEBF0FBECDBF6887D0
:1029400079878A879B872C873D874E875F87198B7E
:10295000088BFB8AEA8ADD8ACC8A8FE590E0FC014D
:10296000808180788D83F89480E091E00E943B1113
:102970009F838E838E819F8128893989FC013387CB
:1029800022878E819F812A893B89FC013587248794
:102990008E819F812C893D89FC01378726878D8117
:1029A000882369F08091060190910701FC018281E2
:1029B0009381FC0182819381A481B58108C08091BB
:1029C000200190912101A0912201B091230128853D
:1029D00039854A855B85820F931FA41FB51F2E8101
:1029E0003F81F90182839383A483B5838E819F8184
:1029F000FC0122813381448155818C859D85AE8582
:102A0000BF85181619061A061B062CF48C859D85A1
:102A1000AE85BF8504C08FEF9FEFAFEFBFE7820F9A
:102A2000931FA41FB51F2E813F81F90186839783D1
:102A3000A087B1878091240190912501092E000C77
:102A4000AA0BBB0BAC013327222784E890E0FC01E2
:102A500080819181CC01A0E0B0E0822B932BA42B4C
:102A6000B52B89839A83AB83BC8386E390E0FC011A
:102A70008081882F90E081709927892BE1F08091E7
:102A80002401909125010196092E000CAA0BBB0B85
:102A9000AC013327222784E890E0FC0180819181FA
:102AA000CC01A0E0B0E0822B932BA42BB52B898323
:102AB0009A83AB83BC838E819F81FC012281338109
:102AC0004481558189819A81AB81BC8179018A01D8
:102AD000E81AF90A0A0B1B0BD801C70118161906C8
:102AE0001A061B060CF061C08E819F816EE171E0B9
:102AF0000E94DD1080911E0190911F01892B09F425
:102B00004AC080911E0190911F01FC018281938136
:102B1000A481B581CD01BB2797FDB095AB2F9C015A
:102B2000809124019091250128173907A1F528E803
:102B300030E080911E0190911F01FC018281938100
:102B4000A481B581AC0184E890E0FC018081918191
:102B50007A01E81AF90AC701019739F484E890E08C
:102B6000FC0180819181019609C080911E019091A4
:102B70001F01FC0182819381A481B581F9019183B8
:102B800080838FE690E02FE630E0F901208122601B
:102B9000FC01208346C08FE690E02FE630E0F9018B
:102BA00020812D7FFC0120833CC08E819F816CE1C0
:102BB00071E00E947F108D81882399F1809102013C
:102BC00090910301892B69F180911C0190911D0165
:102BD000FC012681378140855185809104019091C7
:102BE0000501FC0182819381FC0186819781A0858A
:102BF000B18579018A01E81AF90A0A0B1B0BD80181
:102C0000C701BB2374F482E091E00E94BE1164E02E
:102C100071E00E949B1180910401909105010E9436
:102C20006D138D81882309F078948E819F8165963C
:102C30000FB6F894DEBF0FBECDBFDF91CF911F91CD
:102C40000F91FF90EF90DF90CF900895CF93DF9397
:102C5000CDB7DEB72C970FB6F894DEBF0FBECDBF51
:102C600098878F837A8769875C874B878FE590E0A9
:102C7000FC01808180788B83F8948F819885FC019A
:102C8000808191819A83898389819A81892B09F432
:102C90005AC00AC089819A81FC0184819581FC0116
:102CA000808191819A83898389819A81FC018481C1
:102CB0009581892B79F780910601909107012981EF
:102CC0003A812817390719F08B81882339F48B81D1
:102CD000882309F078948FEF9FEF83C08F819885C8
:102CE000FC0182819381892B41F08F819885FC01C1
:102CF00082819381FC01158214822091060130911A
:102D000007018F819885FC0133832283809106011E
:102D1000909107012F813885FC01358324838981B7
:102D20009A810E946D138091060190910701FC0128
:102D300082819381892B39F48B81882309F07894DF
:102D400080E090E04EC020910601309107018F8114
:102D50009885FC01318320838B81882341F08F810A
:102D60009885FC0182819381019709F078944B85C5
:102D70005C858F81988529853A85BA01F901099585
:102D80009D838C838FE590E0FC01808180788E8329
:102D9000F8948F819885FC01118210828F8198852B
:102DA000FC01828193819A83898389819A81892B0D
:102DB00091F089819A81019771F08F819885FC014A
:102DC0001382128289819A81FC0115821482898181
:102DD0009A810E946D138B81882309F078948C81ED
:102DE0009D812C960FB6F894DEBF0FBECDBFDF914C
:102DF000CF910895CF93DF9300D0CDB7DEB71A827D
:102E000019821EC089819A81019682959295907F40
:102E10009827807F98279C0121503E4F89819A8175
:102E200082959295907F9827807F982781509E4F1A
:102E3000FC013183208389819A8101969A83898359
:102E400089819A810E97F4F21092E0021092DF02CB
:102E50001A82198220C089819A819C012F5F3F4F7D
:102E60004DE1429FC001439F900D11249C01265BC0
:102E70003E4F49815A816DE1649FC001659F900D6D
:102E80001124865B9E4FFC013183208389819A81C6
:102E900001969A83898389819A810397E4F210923B
:102EA000A2011092A1011A82198266C029813A8179
:102EB0004DE1429FC001439F900D11240696865B11
:102EC0009E4F0E94D81829813A814DE1429FC0014E
:102ED000439F900D11240696865B9E4F4096498134
:102EE0005A8160E6649F9001659F300D1124215145
:102EF0003D4F245A3F4FFC013183208329813A8181
:102F00004DE1429FC001439F900D11240696865BC0
:102F10009E4F429649815A8160E6649F9001659F69
:102F2000300D112421513D4F245A3F4FFC01318374
:102F3000208329813A814DE1429FC001439F900D3A
:102F400011240696865B9E4F459620E933E1FC01ED
:102F50003183208329813A814DE1429FC001439F03
:102F6000900D1124825B9E4FFC0111821082898199
:102F70009A8101969A83898389819A8104970CF4B6
:102F800095CF1092E3011092E2011092E7011092A6
:102F9000E6011092E5011092E40181E690E020E85C
:102FA000FC01208381E690E0FC01108284E890E03F
:102FB000FC011182108281E890E024E0FC01208372
:102FC0008FE690E021E0FC01208300000F900F903D
:102FD000DF91CF910895CF93DF9300D000D000D040
:102FE000CDB7DEB79B838A837D836C834E838E81CE
:102FF000823150F58FE590E0FC01808180788983F3
:10300000F8948E81882F90E0880F991F8A5D9E4FDB
:103010002A813B81FC01318320838E81882F90E0BF
:10302000880F991F82549E4F2C813D81FC01318372
:1030300020838A819B8121E030E0FC01338322835D
:103040008981882309F07894000026960FB6F894B9
:10305000DEBF0FBECDBFDF91CF910895CF92DF923B
:10306000EF92FF920F931F93CF93DF93CDB7DEB70D
:1030700027970FB6F894DEBF0FBECDBF9B838A8320
:103080007D836C835F834E838FE590E0FC018081BC
:1030900080788983F8940E94FA1678948C819D81B7
:1030A000892B89F04E815F812C813D818A819B81B2
:1030B0006A0179018C0120E030E0A90160E070E054
:1030C000CB010E948F148FE590E0FC018081807815
:1030D0008983F8940E942D1480E090E027960FB623
:1030E000F894DEBF0FBECDBFDF91CF911F910F913E
:1030F000FF90EF90DF90CF900895052E97FB1EF480
:1031000000940E94941857FD07D00E94A71807FC4E
:1031100003D04EF40C949418509540953095219519
:103120003F4F4F4F5F4F08959095809570956195F3
:103130007F4F8F4F9F4F08950E94C918A59F900DF4
:10314000B49F900DA49F800D911D11240895A1E2BC
:103150001A2EAA1BBB1BFD010DC0AA1FBB1FEE1F11
:10316000FF1FA217B307E407F50720F0A21BB30B5C
:10317000E40BF50B661F771F881F991F1A9469F7D8
:1031800060957095809590959B01AC01BD01CF0134
:103190000895A29FB001B39FC001A39F700D811D30
:1031A0001124911DB29F700D811D1124911D089550
:1031B000DC012D923D924D925D926D927D928D92A9
:1031C0009D92AD92BD92CD92DD92ED92FD920D93C6
:1031D0001D93CD93DD93FF91EF918DB78D938EB7B6
:1031E0008D938FB78D93ED93FD938827992709943D
:1031F000DC01CB0181309105811D2D903D904D90DA
:103200005D906D907D908D909D90AD90BD90CD9096
:10321000DD90ED90FD900D911D91CD91DD91ED91A1
:10322000FD910D90F894FEBF0FBEEDBFED91FD91A5
:063230000994F894FFCFA1
:10323600FF014A01E201E20151151001111E111BA5
:0C324600500B411B411F1101511F510B87
:00000001FF
